{
  "_format": "hh-sol-artifact-1",
  "contractName": "NftMarketplace",
  "sourceName": "contracts/NftMarketplace.sol",
  "abi": [
    {
      "inputs": [
        {
          "internalType": "address",
          "name": "nftAddress",
          "type": "address"
        },
        {
          "internalType": "uint256",
          "name": "tokenId",
          "type": "uint256"
        }
      ],
      "name": "NftMarketplace__AlreadyListed",
      "type": "error"
    },
    {
      "inputs": [],
      "name": "NftMarketplace__NotApprovedForMarketPlace",
      "type": "error"
    },
    {
      "inputs": [],
      "name": "NftMarketplace__NotValidPrice",
      "type": "error"
    },
    {
      "inputs": [],
      "name": "NftMarketplace__UnvalidOwner",
      "type": "error"
    },
    {
      "anonymous": false,
      "inputs": [
        {
          "indexed": true,
          "internalType": "address",
          "name": "seller",
          "type": "address"
        },
        {
          "indexed": true,
          "internalType": "address",
          "name": "nftAddress",
          "type": "address"
        },
        {
          "indexed": true,
          "internalType": "uint256",
          "name": "tokenId",
          "type": "uint256"
        },
        {
          "indexed": false,
          "internalType": "uint256",
          "name": "price",
          "type": "uint256"
        }
      ],
      "name": "ItemListed",
      "type": "event"
    },
    {
      "inputs": [
        {
          "internalType": "address",
          "name": "nftAddress",
          "type": "address"
        },
        {
          "internalType": "uint256",
          "name": "tokenId",
          "type": "uint256"
        },
        {
          "internalType": "uint256",
          "name": "price",
          "type": "uint256"
        }
      ],
      "name": "listItem",
      "outputs": [],
      "stateMutability": "nonpayable",
      "type": "function"
    }
  ],
  "bytecode": "0x608060405234801561001057600080fd5b50610613806100206000396000f3fe608060405234801561001057600080fd5b506004361061002b5760003560e01c806389bfd38f14610030575b600080fd5b61004a600480360381019061004591906104b9565b61004c565b005b8060008111610087576040517f3a8c0bfd00000000000000000000000000000000000000000000000000000000815260040160405180910390fd5b838360008290503373ffffffffffffffffffffffffffffffffffffffff168173ffffffffffffffffffffffffffffffffffffffff16636352211e846040518263ffffffff1660e01b81526004016100de9190610553565b60206040518083038186803b1580156100f657600080fd5b505afa15801561010a573d6000803e3d6000fd5b505050506040513d601f19601f8201168201806040525081019061012e919061048c565b73ffffffffffffffffffffffffffffffffffffffff161461017b576040517f8f39db0c00000000000000000000000000000000000000000000000000000000815260040160405180910390fd5b868660008290503073ffffffffffffffffffffffffffffffffffffffff168173ffffffffffffffffffffffffffffffffffffffff1663081812fc846040518263ffffffff1660e01b81526004016101d29190610553565b60206040518083038186803b1580156101ea57600080fd5b505afa1580156101fe573d6000803e3d6000fd5b505050506040513d601f19601f82011682018060405250810190610222919061048c565b73ffffffffffffffffffffffffffffffffffffffff161461026f576040517fcaa26a2c00000000000000000000000000000000000000000000000000000000815260040160405180910390fd5b898960008060008473ffffffffffffffffffffffffffffffffffffffff1673ffffffffffffffffffffffffffffffffffffffff168152602001908152602001600020600083815260200190815260200160002060000154111561030b5781816040517fc2f0d70900000000000000000000000000000000000000000000000000000000815260040161030292919061052a565b60405180910390fd5b60405180604001604052808b81526020013373ffffffffffffffffffffffffffffffffffffffff168152506000808e73ffffffffffffffffffffffffffffffffffffffff1673ffffffffffffffffffffffffffffffffffffffff16815260200190815260200160002060008d81526020019081526020016000206000820151816000015560208201518160010160006101000a81548173ffffffffffffffffffffffffffffffffffffffff021916908373ffffffffffffffffffffffffffffffffffffffff1602179055509050508a8c73ffffffffffffffffffffffffffffffffffffffff163373ffffffffffffffffffffffffffffffffffffffff167fd547e933094f12a9159076970143ebe73234e64480317844b0dcb36117116de48d6040516104379190610553565b60405180910390a4505050505050505050505050565b60008135905061045c816105af565b92915050565b600081519050610471816105af565b92915050565b600081359050610486816105c6565b92915050565b6000602082840312156104a2576104a16105aa565b5b60006104b084828501610462565b91505092915050565b6000806000606084860312156104d2576104d16105aa565b5b60006104e08682870161044d565b93505060206104f186828701610477565b925050604061050286828701610477565b9150509250925092565b6105158161056e565b82525050565b610524816105a0565b82525050565b600060408201905061053f600083018561050c565b61054c602083018461051b565b9392505050565b6000602082019050610568600083018461051b565b92915050565b600061057982610580565b9050919050565b600073ffffffffffffffffffffffffffffffffffffffff82169050919050565b6000819050919050565b600080fd5b6105b88161056e565b81146105c357600080fd5b50565b6105cf816105a0565b81146105da57600080fd5b5056fea264697066735822122025dd73253b4e5775d8096639b8864b7044ad3530739440f431794126bce7c2c564736f6c63430008070033",
  "linkReferences": {},
  "deployedLinkReferences": {}
}