{
  "_format": "hh-sol-artifact-1",
  "contractName": "NftMarketplace",
  "sourceName": "contracts/NftMarketplace.sol",
  "abi": [
    {
      "inputs": [
        {
          "internalType": "address",
          "name": "nftAddress",
          "type": "address"
        },
        {
          "internalType": "uint256",
          "name": "tokenId",
          "type": "uint256"
        }
      ],
      "name": "NftMarketplace__AlreadyListed",
      "type": "error"
    },
    {
      "inputs": [],
      "name": "NftMarketplace__CannotBuyYourOwnNFT",
      "type": "error"
    },
    {
      "inputs": [],
      "name": "NftMarketplace__NotApprovedForMarketPlace",
      "type": "error"
    },
    {
      "inputs": [],
      "name": "NftMarketplace__NotValidPrice",
      "type": "error"
    },
    {
      "inputs": [],
      "name": "NftMarketplace__PriceNotMet",
      "type": "error"
    },
    {
      "inputs": [],
      "name": "NftMarketplace__UnvalidOwner",
      "type": "error"
    },
    {
      "anonymous": false,
      "inputs": [
        {
          "indexed": true,
          "internalType": "address",
          "name": "buyer",
          "type": "address"
        },
        {
          "indexed": true,
          "internalType": "address",
          "name": "nftAddress",
          "type": "address"
        },
        {
          "indexed": true,
          "internalType": "uint256",
          "name": "tokenId",
          "type": "uint256"
        },
        {
          "indexed": false,
          "internalType": "uint256",
          "name": "price",
          "type": "uint256"
        }
      ],
      "name": "ItemBought",
      "type": "event"
    },
    {
      "anonymous": false,
      "inputs": [
        {
          "indexed": true,
          "internalType": "address",
          "name": "seller",
          "type": "address"
        },
        {
          "indexed": true,
          "internalType": "address",
          "name": "nftAddress",
          "type": "address"
        },
        {
          "indexed": true,
          "internalType": "uint256",
          "name": "tokenId",
          "type": "uint256"
        },
        {
          "indexed": false,
          "internalType": "uint256",
          "name": "price",
          "type": "uint256"
        }
      ],
      "name": "ItemListed",
      "type": "event"
    },
    {
      "inputs": [
        {
          "internalType": "address",
          "name": "nftAddress",
          "type": "address"
        },
        {
          "internalType": "uint256",
          "name": "tokenId",
          "type": "uint256"
        }
      ],
      "name": "buyItem",
      "outputs": [],
      "stateMutability": "payable",
      "type": "function"
    },
    {
      "inputs": [
        {
          "internalType": "address",
          "name": "nftAddress",
          "type": "address"
        },
        {
          "internalType": "uint256",
          "name": "tokenId",
          "type": "uint256"
        },
        {
          "internalType": "uint256",
          "name": "price",
          "type": "uint256"
        }
      ],
      "name": "listItem",
      "outputs": [],
      "stateMutability": "nonpayable",
      "type": "function"
    }
  ],
  "bytecode": "0x608060405234801561001057600080fd5b50610a7b806100206000396000f3fe6080604052600436106100295760003560e01c806389bfd38f1461002e5780639f37092a14610057575b600080fd5b34801561003a57600080fd5b5061005560048036038101906100509190610865565b610073565b005b610071600480360381019061006c9190610825565b610473565b005b828260008290503373ffffffffffffffffffffffffffffffffffffffff168173ffffffffffffffffffffffffffffffffffffffff16636352211e846040518263ffffffff1660e01b81526004016100ca9190610936565b60206040518083038186803b1580156100e257600080fd5b505afa1580156100f6573d6000803e3d6000fd5b505050506040513d601f19601f8201168201806040525081019061011a91906107f8565b73ffffffffffffffffffffffffffffffffffffffff1614610167576040517f8f39db0c00000000000000000000000000000000000000000000000000000000815260040160405180910390fd5b858560008290503073ffffffffffffffffffffffffffffffffffffffff168173ffffffffffffffffffffffffffffffffffffffff1663081812fc846040518263ffffffff1660e01b81526004016101be9190610936565b60206040518083038186803b1580156101d657600080fd5b505afa1580156101ea573d6000803e3d6000fd5b505050506040513d601f19601f8201168201806040525081019061020e91906107f8565b73ffffffffffffffffffffffffffffffffffffffff161461025b576040517fcaa26a2c00000000000000000000000000000000000000000000000000000000815260040160405180910390fd5b888860008060008473ffffffffffffffffffffffffffffffffffffffff1673ffffffffffffffffffffffffffffffffffffffff16815260200190815260200160002060008381526020019081526020016000206000015411156102f75781816040517fc2f0d7090000000000000000000000000000000000000000000000000000000081526004016102ee92919061090d565b60405180910390fd5b6000891015610332576040517f3a8c0bfd00000000000000000000000000000000000000000000000000000000815260040160405180910390fd5b60405180604001604052808a81526020013373ffffffffffffffffffffffffffffffffffffffff168152506000808d73ffffffffffffffffffffffffffffffffffffffff1673ffffffffffffffffffffffffffffffffffffffff16815260200190815260200160002060008c81526020019081526020016000206000820151816000015560208201518160010160006101000a81548173ffffffffffffffffffffffffffffffffffffffff021916908373ffffffffffffffffffffffffffffffffffffffff160217905550905050898b73ffffffffffffffffffffffffffffffffffffffff163373ffffffffffffffffffffffffffffffffffffffff167fd547e933094f12a9159076970143ebe73234e64480317844b0dcb36117116de48c60405161045e9190610936565b60405180910390a45050505050505050505050565b818160008060008473ffffffffffffffffffffffffffffffffffffffff1673ffffffffffffffffffffffffffffffffffffffff1681526020019081526020016000206000838152602001908152602001600020600001541015610502576040517f42ea7dd100000000000000000000000000000000000000000000000000000000815260040160405180910390fd5b60008060008673ffffffffffffffffffffffffffffffffffffffff1673ffffffffffffffffffffffffffffffffffffffff1681526020019081526020016000206000858152602001908152602001600020604051806040016040529081600082015481526020016001820160009054906101000a900473ffffffffffffffffffffffffffffffffffffffff1673ffffffffffffffffffffffffffffffffffffffff1673ffffffffffffffffffffffffffffffffffffffff1681525050905034816000015110156105fe576040517fb37afd4700000000000000000000000000000000000000000000000000000000815260040160405180910390fd5b3460016000836020015173ffffffffffffffffffffffffffffffffffffffff1673ffffffffffffffffffffffffffffffffffffffff16815260200190815260200160002060008282546106519190610951565b925050819055506000808673ffffffffffffffffffffffffffffffffffffffff1673ffffffffffffffffffffffffffffffffffffffff16815260200190815260200160002060008581526020019081526020016000206000808201600090556001820160006101000a81549073ffffffffffffffffffffffffffffffffffffffff021916905550508473ffffffffffffffffffffffffffffffffffffffff166342842e0e826020015133876040518463ffffffff1660e01b815260040161071a939291906108d6565b600060405180830381600087803b15801561073457600080fd5b505af1158015610748573d6000803e3d6000fd5b50505050838573ffffffffffffffffffffffffffffffffffffffff163373ffffffffffffffffffffffffffffffffffffffff167f263223b1dd81e51054a4e6f791d45a4a1ddb4aadcd93a2dfd892615c3fdac187346040516107aa9190610936565b60405180910390a45050505050565b6000813590506107c881610a17565b92915050565b6000815190506107dd81610a17565b92915050565b6000813590506107f281610a2e565b92915050565b60006020828403121561080e5761080d610a12565b5b600061081c848285016107ce565b91505092915050565b6000806040838503121561083c5761083b610a12565b5b600061084a858286016107b9565b925050602061085b858286016107e3565b9150509250929050565b60008060006060848603121561087e5761087d610a12565b5b600061088c868287016107b9565b935050602061089d868287016107e3565b92505060406108ae868287016107e3565b9150509250925092565b6108c1816109a7565b82525050565b6108d0816109d9565b82525050565b60006060820190506108eb60008301866108b8565b6108f860208301856108b8565b61090560408301846108c7565b949350505050565b600060408201905061092260008301856108b8565b61092f60208301846108c7565b9392505050565b600060208201905061094b60008301846108c7565b92915050565b600061095c826109d9565b9150610967836109d9565b9250827fffffffffffffffffffffffffffffffffffffffffffffffffffffffffffffffff0382111561099c5761099b6109e3565b5b828201905092915050565b60006109b2826109b9565b9050919050565b600073ffffffffffffffffffffffffffffffffffffffff82169050919050565b6000819050919050565b7f4e487b7100000000000000000000000000000000000000000000000000000000600052601160045260246000fd5b600080fd5b610a20816109a7565b8114610a2b57600080fd5b50565b610a37816109d9565b8114610a4257600080fd5b5056fea264697066735822122034604fd5b746a8a5405e11decfbcab94c3a656b49b51357b953ed392d99fa64d64736f6c63430008070033",
  "linkReferences": {},
  "deployedLinkReferences": {}
}